{
  "_format": "hh-sol-artifact-1",
  "contractName": "AutoMinerRegistry",
  "sourceName": "contracts/AutoMinerRegistry.sol",
  "abi": [
    {
      "inputs": [
        {
          "internalType": "address",
          "name": "_miner",
          "type": "address"
        },
        {
          "internalType": "address",
          "name": "_bot",
          "type": "address"
        }
      ],
      "stateMutability": "nonpayable",
      "type": "constructor"
    },
    {
      "inputs": [],
      "name": "AlreadyMinedThisEpoch",
      "type": "error"
    },
    {
      "inputs": [],
      "name": "FeeTooHigh",
      "type": "error"
    },
    {
      "inputs": [],
      "name": "InsufficientBalance",
      "type": "error"
    },
    {
      "inputs": [],
      "name": "InvalidConfig",
      "type": "error"
    },
    {
      "inputs": [],
      "name": "InvalidMiner",
      "type": "error"
    },
    {
      "inputs": [],
      "name": "NoFees",
      "type": "error"
    },
    {
      "inputs": [],
      "name": "NoPendingFee",
      "type": "error"
    },
    {
      "inputs": [],
      "name": "NotEnabled",
      "type": "error"
    },
    {
      "inputs": [],
      "name": "NotRegistered",
      "type": "error"
    },
    {
      "inputs": [
        {
          "internalType": "address",
          "name": "owner",
          "type": "address"
        }
      ],
      "name": "OwnableInvalidOwner",
      "type": "error"
    },
    {
      "inputs": [
        {
          "internalType": "address",
          "name": "account",
          "type": "address"
        }
      ],
      "name": "OwnableUnauthorizedAccount",
      "type": "error"
    },
    {
      "inputs": [],
      "name": "PendingMineExists",
      "type": "error"
    },
    {
      "inputs": [],
      "name": "ReentrancyGuardReentrantCall",
      "type": "error"
    },
    {
      "inputs": [],
      "name": "TimelockActive",
      "type": "error"
    },
    {
      "inputs": [],
      "name": "Unauthorized",
      "type": "error"
    },
    {
      "inputs": [],
      "name": "UnitWeiZero",
      "type": "error"
    },
    {
      "inputs": [],
      "name": "UserIneligible",
      "type": "error"
    },
    {
      "inputs": [],
      "name": "WindowQuotaExceeded",
      "type": "error"
    },
    {
      "inputs": [],
      "name": "WithdrawFailed",
      "type": "error"
    },
    {
      "inputs": [],
      "name": "ZeroBalance",
      "type": "error"
    },
    {
      "inputs": [],
      "name": "ZeroDeposit",
      "type": "error"
    },
    {
      "anonymous": false,
      "inputs": [
        {
          "indexed": true,
          "internalType": "address",
          "name": "user",
          "type": "address"
        },
        {
          "indexed": false,
          "internalType": "uint256",
          "name": "tickets",
          "type": "uint256"
        },
        {
          "indexed": false,
          "internalType": "uint256",
          "name": "ticketCost",
          "type": "uint256"
        },
        {
          "indexed": false,
          "internalType": "uint256",
          "name": "serviceFee",
          "type": "uint256"
        },
        {
          "indexed": false,
          "internalType": "uint256",
          "name": "epoch",
          "type": "uint256"
        }
      ],
      "name": "AutoMined",
      "type": "event"
    },
    {
      "anonymous": false,
      "inputs": [
        {
          "indexed": true,
          "internalType": "address",
          "name": "user",
          "type": "address"
        },
        {
          "indexed": false,
          "internalType": "bytes32",
          "name": "reason",
          "type": "bytes32"
        }
      ],
      "name": "AutoMiningHalted",
      "type": "event"
    },
    {
      "anonymous": false,
      "inputs": [
        {
          "indexed": true,
          "internalType": "address",
          "name": "user",
          "type": "address"
        },
        {
          "indexed": false,
          "internalType": "bool",
          "name": "enabled",
          "type": "bool"
        }
      ],
      "name": "AutoMiningToggled",
      "type": "event"
    },
    {
      "anonymous": false,
      "inputs": [
        {
          "indexed": true,
          "internalType": "address",
          "name": "bot",
          "type": "address"
        }
      ],
      "name": "BotUpdated",
      "type": "event"
    },
    {
      "anonymous": false,
      "inputs": [
        {
          "indexed": true,
          "internalType": "address",
          "name": "user",
          "type": "address"
        },
        {
          "indexed": false,
          "internalType": "uint256",
          "name": "amount",
          "type": "uint256"
        }
      ],
      "name": "Deposit",
      "type": "event"
    },
    {
      "anonymous": false,
      "inputs": [
        {
          "indexed": false,
          "internalType": "uint256",
          "name": "epoch",
          "type": "uint256"
        }
      ],
      "name": "GlobalJackpotNotified",
      "type": "event"
    },
    {
      "anonymous": false,
      "inputs": [
        {
          "indexed": true,
          "internalType": "address",
          "name": "keeper",
          "type": "address"
        },
        {
          "indexed": true,
          "internalType": "address",
          "name": "user",
          "type": "address"
        },
        {
          "indexed": false,
          "internalType": "uint256",
          "name": "amount",
          "type": "uint256"
        }
      ],
      "name": "KeeperTipPaid",
      "type": "event"
    },
    {
      "anonymous": false,
      "inputs": [
        {
          "indexed": false,
          "internalType": "uint256",
          "name": "newTipBps",
          "type": "uint256"
        }
      ],
      "name": "KeeperTipUpdated",
      "type": "event"
    },
    {
      "anonymous": false,
      "inputs": [
        {
          "indexed": true,
          "internalType": "address",
          "name": "newSource",
          "type": "address"
        }
      ],
      "name": "NFTDiscountSourceUpdated",
      "type": "event"
    },
    {
      "anonymous": false,
      "inputs": [
        {
          "indexed": true,
          "internalType": "address",
          "name": "previousOwner",
          "type": "address"
        },
        {
          "indexed": true,
          "internalType": "address",
          "name": "newOwner",
          "type": "address"
        }
      ],
      "name": "OwnershipTransferred",
      "type": "event"
    },
    {
      "anonymous": false,
      "inputs": [
        {
          "indexed": true,
          "internalType": "address",
          "name": "newRegistry",
          "type": "address"
        }
      ],
      "name": "ReferralRegistryUpdated",
      "type": "event"
    },
    {
      "anonymous": false,
      "inputs": [
        {
          "indexed": true,
          "internalType": "address",
          "name": "user",
          "type": "address"
        },
        {
          "indexed": false,
          "internalType": "uint256",
          "name": "ticketsPerMine",
          "type": "uint256"
        },
        {
          "indexed": false,
          "internalType": "uint256",
          "name": "minesPerWindow",
          "type": "uint256"
        },
        {
          "indexed": false,
          "internalType": "uint256",
          "name": "windowEpochs",
          "type": "uint256"
        }
      ],
      "name": "Registered",
      "type": "event"
    },
    {
      "anonymous": false,
      "inputs": [
        {
          "indexed": true,
          "internalType": "address",
          "name": "user",
          "type": "address"
        },
        {
          "indexed": false,
          "internalType": "uint256",
          "name": "minesPerWindow",
          "type": "uint256"
        },
        {
          "indexed": false,
          "internalType": "uint256",
          "name": "windowEpochs",
          "type": "uint256"
        }
      ],
      "name": "ScheduleUpdated",
      "type": "event"
    },
    {
      "anonymous": false,
      "inputs": [
        {
          "indexed": false,
          "internalType": "uint256",
          "name": "newFeeBps",
          "type": "uint256"
        },
        {
          "indexed": false,
          "internalType": "uint256",
          "name": "effectiveTime",
          "type": "uint256"
        }
      ],
      "name": "ServiceFeeCommitted",
      "type": "event"
    },
    {
      "anonymous": false,
      "inputs": [
        {
          "indexed": false,
          "internalType": "uint256",
          "name": "newFeeBps",
          "type": "uint256"
        }
      ],
      "name": "ServiceFeeUpdated",
      "type": "event"
    },
    {
      "anonymous": false,
      "inputs": [
        {
          "indexed": true,
          "internalType": "address",
          "name": "treasury",
          "type": "address"
        },
        {
          "indexed": false,
          "internalType": "uint256",
          "name": "amount",
          "type": "uint256"
        }
      ],
      "name": "ServiceFeesWithdrawn",
      "type": "event"
    },
    {
      "anonymous": false,
      "inputs": [
        {
          "indexed": true,
          "internalType": "address",
          "name": "user",
          "type": "address"
        },
        {
          "indexed": false,
          "internalType": "uint256",
          "name": "stopWinThreshold",
          "type": "uint256"
        },
        {
          "indexed": false,
          "internalType": "bool",
          "name": "stopOnAnyJackpot",
          "type": "bool"
        }
      ],
      "name": "StopConditionsUpdated",
      "type": "event"
    },
    {
      "anonymous": false,
      "inputs": [
        {
          "indexed": true,
          "internalType": "address",
          "name": "user",
          "type": "address"
        },
        {
          "indexed": false,
          "internalType": "uint256",
          "name": "amount",
          "type": "uint256"
        }
      ],
      "name": "UserJackpotRecorded",
      "type": "event"
    },
    {
      "anonymous": false,
      "inputs": [
        {
          "indexed": true,
          "internalType": "address",
          "name": "user",
          "type": "address"
        },
        {
          "indexed": false,
          "internalType": "uint256",
          "name": "amount",
          "type": "uint256"
        }
      ],
      "name": "Withdrawal",
      "type": "event"
    },
    {
      "inputs": [],
      "name": "FEE_UPDATE_DELAY",
      "outputs": [
        {
          "internalType": "uint256",
          "name": "",
          "type": "uint256"
        }
      ],
      "stateMutability": "view",
      "type": "function"
    },
    {
      "inputs": [],
      "name": "MAX_DISCOUNT_BPS",
      "outputs": [
        {
          "internalType": "uint256",
          "name": "",
          "type": "uint256"
        }
      ],
      "stateMutability": "view",
      "type": "function"
    },
    {
      "inputs": [],
      "name": "MAX_KEEPER_TIP_BPS",
      "outputs": [
        {
          "internalType": "uint256",
          "name": "",
          "type": "uint256"
        }
      ],
      "stateMutability": "view",
      "type": "function"
    },
    {
      "inputs": [],
      "name": "MAX_SERVICE_FEE_BPS",
      "outputs": [
        {
          "internalType": "uint256",
          "name": "",
          "type": "uint256"
        }
      ],
      "stateMutability": "view",
      "type": "function"
    },
    {
      "inputs": [],
      "name": "applyServiceFeeBps",
      "outputs": [],
      "stateMutability": "nonpayable",
      "type": "function"
    },
    {
      "inputs": [],
      "name": "bot",
      "outputs": [
        {
          "internalType": "address",
          "name": "",
          "type": "address"
        }
      ],
      "stateMutability": "view",
      "type": "function"
    },
    {
      "inputs": [
        {
          "internalType": "uint256",
          "name": "newFeeBps",
          "type": "uint256"
        }
      ],
      "name": "commitServiceFeeBps",
      "outputs": [],
      "stateMutability": "nonpayable",
      "type": "function"
    },
    {
      "inputs": [
        {
          "internalType": "address",
          "name": "",
          "type": "address"
        }
      ],
      "name": "configs",
      "outputs": [
        {
          "internalType": "bool",
          "name": "enabled",
          "type": "bool"
        },
        {
          "internalType": "bool",
          "name": "stopOnAnyJackpot",
          "type": "bool"
        },
        {
          "internalType": "uint32",
          "name": "ticketsPerMine",
          "type": "uint32"
        },
        {
          "internalType": "uint32",
          "name": "minesPerWindow",
          "type": "uint32"
        },
        {
          "internalType": "uint32",
          "name": "windowEpochs",
          "type": "uint32"
        },
        {
          "internalType": "uint32",
          "name": "minesInCurrentWindow",
          "type": "uint32"
        },
        {
          "internalType": "uint64",
          "name": "currentWindowStart",
          "type": "uint64"
        },
        {
          "internalType": "uint64",
          "name": "lastMinedEpoch",
          "type": "uint64"
        },
        {
          "internalType": "uint64",
          "name": "lastJackpotEpochSeen",
          "type": "uint64"
        },
        {
          "internalType": "uint256",
          "name": "depositedBalance",
          "type": "uint256"
        },
        {
          "internalType": "uint256",
          "name": "stopWinThreshold",
          "type": "uint256"
        },
        {
          "internalType": "uint256",
          "name": "totalMined",
          "type": "uint256"
        }
      ],
      "stateMutability": "view",
      "type": "function"
    },
    {
      "inputs": [],
      "name": "deposit",
      "outputs": [],
      "stateMutability": "payable",
      "type": "function"
    },
    {
      "inputs": [],
      "name": "disableAutoMining",
      "outputs": [],
      "stateMutability": "nonpayable",
      "type": "function"
    },
    {
      "inputs": [],
      "name": "emergencyWithdraw",
      "outputs": [],
      "stateMutability": "nonpayable",
      "type": "function"
    },
    {
      "inputs": [],
      "name": "enableAutoMining",
      "outputs": [],
      "stateMutability": "nonpayable",
      "type": "function"
    },
    {
      "inputs": [
        {
          "internalType": "address",
          "name": "user",
          "type": "address"
        }
      ],
      "name": "getDiscountBps",
      "outputs": [
        {
          "internalType": "uint256",
          "name": "discountBps",
          "type": "uint256"
        }
      ],
      "stateMutability": "view",
      "type": "function"
    },
    {
      "inputs": [
        {
          "internalType": "address",
          "name": "user",
          "type": "address"
        }
      ],
      "name": "getProjectedCost",
      "outputs": [
        {
          "internalType": "uint256",
          "name": "totalCost",
          "type": "uint256"
        },
        {
          "internalType": "uint256",
          "name": "ticketCost",
          "type": "uint256"
        },
        {
          "internalType": "uint256",
          "name": "serviceFee",
          "type": "uint256"
        }
      ],
      "stateMutability": "view",
      "type": "function"
    },
    {
      "inputs": [],
      "name": "keeperTipBps",
      "outputs": [
        {
          "internalType": "uint256",
          "name": "",
          "type": "uint256"
        }
      ],
      "stateMutability": "view",
      "type": "function"
    },
    {
      "inputs": [],
      "name": "lastGlobalJackpotEpoch",
      "outputs": [
        {
          "internalType": "uint256",
          "name": "",
          "type": "uint256"
        }
      ],
      "stateMutability": "view",
      "type": "function"
    },
    {
      "inputs": [
        {
          "internalType": "address[]",
          "name": "users",
          "type": "address[]"
        }
      ],
      "name": "mineBatch",
      "outputs": [],
      "stateMutability": "nonpayable",
      "type": "function"
    },
    {
      "inputs": [
        {
          "internalType": "address",
          "name": "user",
          "type": "address"
        }
      ],
      "name": "mineForUser",
      "outputs": [],
      "stateMutability": "nonpayable",
      "type": "function"
    },
    {
      "inputs": [],
      "name": "miner",
      "outputs": [
        {
          "internalType": "contract NARAMiner",
          "name": "",
          "type": "address"
        }
      ],
      "stateMutability": "view",
      "type": "function"
    },
    {
      "inputs": [],
      "name": "nftDiscountSource",
      "outputs": [
        {
          "internalType": "address",
          "name": "",
          "type": "address"
        }
      ],
      "stateMutability": "view",
      "type": "function"
    },
    {
      "inputs": [
        {
          "internalType": "uint256",
          "name": "epoch",
          "type": "uint256"
        }
      ],
      "name": "notifyGlobalJackpot",
      "outputs": [],
      "stateMutability": "nonpayable",
      "type": "function"
    },
    {
      "inputs": [
        {
          "internalType": "address",
          "name": "user",
          "type": "address"
        },
        {
          "internalType": "uint256",
          "name": "amount",
          "type": "uint256"
        }
      ],
      "name": "notifyUserJackpot",
      "outputs": [],
      "stateMutability": "nonpayable",
      "type": "function"
    },
    {
      "inputs": [],
      "name": "owner",
      "outputs": [
        {
          "internalType": "address",
          "name": "",
          "type": "address"
        }
      ],
      "stateMutability": "view",
      "type": "function"
    },
    {
      "inputs": [],
      "name": "pendingServiceFeeBps",
      "outputs": [
        {
          "internalType": "uint256",
          "name": "",
          "type": "uint256"
        }
      ],
      "stateMutability": "view",
      "type": "function"
    },
    {
      "inputs": [],
      "name": "referralRegistry",
      "outputs": [
        {
          "internalType": "address",
          "name": "",
          "type": "address"
        }
      ],
      "stateMutability": "view",
      "type": "function"
    },
    {
      "inputs": [
        {
          "internalType": "uint256",
          "name": "ticketsPerMine",
          "type": "uint256"
        },
        {
          "internalType": "uint256",
          "name": "minesPerWindow",
          "type": "uint256"
        },
        {
          "internalType": "uint256",
          "name": "windowEpochs",
          "type": "uint256"
        },
        {
          "internalType": "uint256",
          "name": "stopWinThreshold",
          "type": "uint256"
        },
        {
          "internalType": "bool",
          "name": "stopOnAnyJackpot",
          "type": "bool"
        }
      ],
      "name": "register",
      "outputs": [],
      "stateMutability": "payable",
      "type": "function"
    },
    {
      "inputs": [],
      "name": "serviceFeeBps",
      "outputs": [
        {
          "internalType": "uint256",
          "name": "",
          "type": "uint256"
        }
      ],
      "stateMutability": "view",
      "type": "function"
    },
    {
      "inputs": [],
      "name": "serviceFeePool",
      "outputs": [
        {
          "internalType": "uint256",
          "name": "",
          "type": "uint256"
        }
      ],
      "stateMutability": "view",
      "type": "function"
    },
    {
      "inputs": [],
      "name": "serviceFeeUpdateTimestamp",
      "outputs": [
        {
          "internalType": "uint256",
          "name": "",
          "type": "uint256"
        }
      ],
      "stateMutability": "view",
      "type": "function"
    },
    {
      "inputs": [
        {
          "internalType": "address",
          "name": "newBot",
          "type": "address"
        }
      ],
      "name": "setBot",
      "outputs": [],
      "stateMutability": "nonpayable",
      "type": "function"
    },
    {
      "inputs": [
        {
          "internalType": "uint256",
          "name": "newTipBps",
          "type": "uint256"
        }
      ],
      "name": "setKeeperTipBps",
      "outputs": [],
      "stateMutability": "nonpayable",
      "type": "function"
    },
    {
      "inputs": [
        {
          "internalType": "address",
          "name": "source",
          "type": "address"
        }
      ],
      "name": "setNFTDiscountSource",
      "outputs": [],
      "stateMutability": "nonpayable",
      "type": "function"
    },
    {
      "inputs": [
        {
          "internalType": "address",
          "name": "registry",
          "type": "address"
        }
      ],
      "name": "setReferralRegistry",
      "outputs": [],
      "stateMutability": "nonpayable",
      "type": "function"
    },
    {
      "inputs": [
        {
          "internalType": "address",
          "name": "user",
          "type": "address"
        },
        {
          "internalType": "uint256",
          "name": "epoch",
          "type": "uint256"
        }
      ],
      "name": "shouldMineThisEpoch",
      "outputs": [
        {
          "internalType": "bool",
          "name": "",
          "type": "bool"
        }
      ],
      "stateMutability": "view",
      "type": "function"
    },
    {
      "inputs": [],
      "name": "token",
      "outputs": [
        {
          "internalType": "contract NARAToken",
          "name": "",
          "type": "address"
        }
      ],
      "stateMutability": "view",
      "type": "function"
    },
    {
      "inputs": [
        {
          "internalType": "address",
          "name": "newOwner",
          "type": "address"
        }
      ],
      "name": "transferOwnership",
      "outputs": [],
      "stateMutability": "nonpayable",
      "type": "function"
    },
    {
      "inputs": [],
      "name": "treasury",
      "outputs": [
        {
          "internalType": "address",
          "name": "",
          "type": "address"
        }
      ],
      "stateMutability": "view",
      "type": "function"
    },
    {
      "inputs": [
        {
          "internalType": "uint256",
          "name": "minesPerWindow",
          "type": "uint256"
        },
        {
          "internalType": "uint256",
          "name": "windowEpochs",
          "type": "uint256"
        }
      ],
      "name": "updateSchedule",
      "outputs": [],
      "stateMutability": "nonpayable",
      "type": "function"
    },
    {
      "inputs": [
        {
          "internalType": "uint256",
          "name": "stopWinThreshold",
          "type": "uint256"
        },
        {
          "internalType": "bool",
          "name": "stopOnAnyJackpot",
          "type": "bool"
        }
      ],
      "name": "updateStopConditions",
      "outputs": [],
      "stateMutability": "nonpayable",
      "type": "function"
    },
    {
      "inputs": [
        {
          "internalType": "address",
          "name": "",
          "type": "address"
        }
      ],
      "name": "userJackpotWins",
      "outputs": [
        {
          "internalType": "uint256",
          "name": "",
          "type": "uint256"
        }
      ],
      "stateMutability": "view",
      "type": "function"
    },
    {
      "inputs": [
        {
          "internalType": "uint256",
          "name": "amount",
          "type": "uint256"
        }
      ],
      "name": "withdraw",
      "outputs": [],
      "stateMutability": "nonpayable",
      "type": "function"
    },
    {
      "inputs": [],
      "name": "withdrawServiceFees",
      "outputs": [],
      "stateMutability": "nonpayable",
      "type": "function"
    },
    {
      "stateMutability": "payable",
      "type": "receive"
    }
  ],
  "bytecode": "0x60e060409080825234620002a5578181620035328038038091620000248285620002aa565b833981010312620002a5576200003a81620002e4565b620000496020809301620002e4565b33156200028d5760018060a01b03199260003385825416178155855133827f8be0079c531659141344cd1fd0a4f28419497f9722a3daafe3b4186f6b6457e08180a3600180556109c46003556064600b556001600160a01b039485169081156200027e575082816004926080528851928380926361d027b360e01b82525afa9081156200023757829162000241575b5060c0526004828560805116885192838092637e062a3560e11b82525afa92831562000237578293620001ee575b50505060a05216906002541617600255516132389081620002fa823960805181818161067f01528181610ceb015281816111dd01528181611a2101528181611c3101528181611c8c01528181611d0101528181611df501528181611f1f01528181611f81015281816123af015281816123f201528181612453015281816125c40152818161261e0152818161269201528181612784015281816128ab0152818161290c01528181612d6c01528181612dae0152612e0e015260a05181818161031a015281816117f801528181611da80152612739015260c0518181816108d601526111150152f35b9080929350813d83116200022f575b620002098183620002aa565b810103126200022b575190838216820362000228575038808062000106565b80fd5b5080fd5b503d620001fd565b87513d84823e3d90fd5b90508281813d831162000276575b6200025b8183620002aa565b810103126200022b576200026f90620002e4565b38620000d8565b503d6200024f565b63a7c1cb4960e01b8152600490fd5b8351631e4fbdf760e01b815260006004820152602490fd5b600080fd5b601f909101601f19168101906001600160401b03821190821017620002ce57604052565b634e487b7160e01b600052604160045260246000fd5b51906001600160a01b0382168203620002a55756fe608060409080825260049081361015610061575b50361561001f57600080fd5b6020606492519162461bcd60e51b8352820152602060248201527f4175746f4d696e657252656769737472793a20757365206465706f73697428296044820152fd5b600090813560e01c90816310814c37146114fe57508063124b500b146114df57806321484e52146113b157806326b87b1b146113405780632e1a7d4d146112d85780633012894f1461123957806331acf4d91461120c578063349dc329146111c8578063357c142a146111a9578063390947cf1461118c5780634e627e6214611163578063529c55141461114457806361d027b31461110057806364daeb5b1461101f5780636a79115f14610fb15780636b5caec414610f435780636cfa6a7514610f245780636d16e8ac14610ef25780637a0de7c414610ed557806380a7435114610eb65780638720639714610e7d5780638da5cb5b14610e555780638fc5e6b614610c1e578063998dd31414610b6e5780639a7557df14610afb578063b3622e1a14610a66578063c2fd8ec814610a49578063c7b941fc14610a2a578063d0e30db014610991578063d4a06c8f14610973578063d72e481d14610893578063d926abed14610832578063db2e21bc14610784578063e6671f90146105fa578063eac2fc99146105c2578063f10c474414610599578063f2fde38b146104fb578063f39773ef1461046a578063f832841d146103d2578063face30d01461034d578063fc0c546a146103055763fce898780361001357919034610301576020366003190112610301576101809282906001600160a01b03610261611523565b16815260076020522080549163ffffffff9360018060401b03906001840154908260028601549460038701549601549682519860ff821615158a5260ff8260081c16151560208b0152808260101c16848b0152808260301c1660608b0152808260501c1660808b01528160701c1660a08a015260901c1660c088015282821660e08801521c16610100850152610120840152610140830152610160820152f35b8280fd5b508234610349578160031936011261034957517f00000000000000000000000000000000000000000000000000000000000000006001600160a01b03168152602090f35b5080fd5b5091903461030157602036600319011261030157610369611523565b83546001600160a01b039391929190841633036103bb575050168060018060a01b0319600a541617600a557fc4315dc74307de5ccf1128947c078a1c52f51f80f05e7b8895039e0fd3ddc5cf8280a280f35b60249250519063118cdaa760e01b82523390820152fd5b509134610301576020366003190112610301576103ed611523565b60026001541461045c5760026001556001600160a01b0381161561044e5761041784913390612564565b80610425575b506001805580f35b81808092335af16104346115ec565b501561044157828161041d565b51631d42c86760e21b8152fd5b50516306b7c75960e31b8152fd5b5051633ee5aeb560e01b8152fd5b5091346103015760203660031901126103015760025482359290336001600160a01b03918216141590816104ed575b506104e0575060095482116104ac578280f35b816020917f1cb07c3476d13f73bab174cf223871f6376fd12a18ee5507744de4812f2aa9559360095551908152a138808280f35b90516282b42960e81b8152fd5b905084541633141538610499565b5091903461030157602036600319011261030157610517611523565b83546001600160a01b03808216939192338503610583571693841561056d5750506001600160a01b031916821783557f8be0079c531659141344cd1fd0a4f28419497f9722a3daafe3b4186f6b6457e08380a380f35b51631e4fbdf760e01b8152908101859052602490fd5b855163118cdaa760e01b81523381850152602490fd5b508234610349578160031936011261034957600a5490516001600160a01b039091168152602090f35b5082346103495760203660031901126103495760209181906001600160a01b036105ea611523565b1681526008845220549051908152f35b50919034610301578160031936011261030157803591602435831561044e57801561044e5780841161044e5763ffffffff8085116107755780821161077557338652602090600782528387209080825460101c1615610765578061066361066b92891684611aca565b841682611aed565b8351632931132d60e11b81529482908690817f00000000000000000000000000000000000000000000000000000000000000006001600160a01b03165afa94851561075b578795610726575b5061070a6106e67f37b50b476a1c3aad70878aea9298883f0df1f4a4a73a2a1a624fe6be4ad558839642611927565b6001600160401b0390610703906106fd8782611b28565b90611577565b1682611b32565b805463ffffffff60701b1916905582519485528401523392a280f35b94508185813d8311610754575b61073d81836115c9565b810103126107505793519361070a6106b7565b8680fd5b503d610733565b84513d89823e3d90fd5b845163aba4733960e01b81528690fd5b5050516306b7c75960e31b8152fd5b5091346103015782600319360112610301576002600154146108255760026001553383526007602052600281842001918254928315610816578490558380808086335af16107d06115ec565b50156108085750519081527f7fcf532c15f0a6db0bd6d0e038bea71d30d808c7d98cb3bf7268a95bf5081b6560203392a26001805580f35b9051631d42c86760e21b8152fd5b50905163334ab3f560e11b8152fd5b51633ee5aeb560e01b8152fd5b5091903461030157826003193601126103015733835260076020528183209081549063ffffffff8260101c1615610885575060ff19169055518181526000805160206131e383398151915260203392a280f35b835163aba4733960e01b8152fd5b50913461030157826003193601126103015782546001600160a01b0391908216330361095e5760026001541461094f576002600155825491821561093f578484557f000000000000000000000000000000000000000000000000000000000000000016928480808086885af16109076115ec565b501561080857507f5dd2c31d9d2a5e0c0e2e541b1f995d773f6bc1f9243abd398748ad5ba13e64db9160209151908152a26001805580f35b81516303fbecdf60e51b81528490fd5b51633ee5aeb560e01b81529050fd5b5163118cdaa760e01b81523381840152602490fd5b508234610349578160031936011261034957602090516203f4808152f35b5091908260031936011261030157600260015414610a1c5760026001553415610a0e5733835260076020528183209063ffffffff825460101c1615610a0057506002016109df348254611554565b90555134815260008051602061318383398151915260203392a26001805580f35b825163aba4733960e01b8152fd5b90516356316e8760e01b8152fd5b9051633ee5aeb560e01b8152fd5b5082346103495781600319360112610349576020906005549051908152f35b508234610349578160031936011261034957602090516101f48152f35b50913461030157806003193601126103015781359160243580151591828203610af75733865260076020528386209063ffffffff825460101c1615610ae957507f8bc5be246d1aefebffc23eaa6180e4a1331a58812bc84a148a0ad435a61ff33293929181866003610ad9940155611b10565b815193845260208401523392a280f35b845163aba4733960e01b8152fd5b8580fd5b5091903461030157826003193601126103015733835260076020528183209081549063ffffffff8260101c1615610885575060ff191660019081178255600954610b52926001600160401b03919091169101611b7e565b51600181526000805160206131e383398151915260203392a280f35b5082346103495760203660031901126103495781548335906001600160a01b03163303610c08576109c48111610bf857806005556203f4804201804211610be5577f69b58eb69c618fea83dca1413b24fc5497198e68d97a77cb6a9a9a62ba1db2b69394508060065582519182526020820152a180f35b634e487b7160e01b845260118552602484fd5b815163cd4e616760e01b81528490fd5b815163118cdaa760e01b81523381860152602490fd5b50919060a03660031901126103015780359160243560443591608435801515810361075057600260015414610e455760026001558515610e35578215610e35578315610e3557838311610e355763ffffffff94858711610e2757858411610e2757858511610e2757338852610cd760209260078452610cc9858b2098895465ffffffff00008c60101b169065ffffffff00001916178a55610cc18189168b611aca565b881689611aed565b606435600389015587611b10565b8251632931132d60e11b81529082908290817f00000000000000000000000000000000000000000000000000000000000000006001600160a01b03165afa908115610e1d578891610dd8575b509060008051602061316383398151915295610d83610d61610d68610d4c610d9f979642611927565b6001600160401b039283916106fd8c82611b28565b1684611b32565b825463ffffffff60701b191683556009541660018301611b7e565b805460ff1916815534610da9575b50505192839233968461153e565b0390a26001805580f35b600201610db7348254611554565b90556000805160206131838339815191528251913483523392a23880610d91565b929180915083813d8311610e16575b610df181836115c9565b81010312610e12579151909190600080516020613163833981519152610d23565b8780fd5b503d610de7565b83513d8a823e3d90fd5b82516306b7c75960e31b8152fd5b81516306b7c75960e31b81528590fd5b8151633ee5aeb560e01b81528590fd5b508234610349578160031936011261034957905490516001600160a01b039091168152602090f35b50823461034957602036600319011261034957610eb290610ea4610e9f611523565b611947565b90939192519384938461153e565b0390f35b508234610349578160031936011261034957602090600b549051908152f35b508234610349578160031936011261034957602090516109c48152f35b508234610349578060031936011261034957602090610f1b610f12611523565b602435906116d4565b90519015158152f35b5091903461030157826003193601126103015760209250549051908152f35b5091903461030157602036600319011261030157610f5f611523565b83546001600160a01b039391929190841633036103bb575050168060018060a01b031960025416176002557f936e050f0541344ea581f80dd77f6e022ecc2c49f88b7f8e001a866357de23f18280a280f35b5091903461030157602036600319011261030157610fcd611523565b83546001600160a01b039391929190841633036103bb575050168060018060a01b0319600c541617600c557f9d4414af8d61d821c1ad25f0aadfa28aa386c452716a31fc1f7fdbd9b9d364dc8280a280f35b509134610301576020366003190112610301576001600160401b0382358181116110fc57366023820112156110fc57808401359182116110fc5760059160243682851b8401820111610750576001926002600154146110ec579290918794926002600155859486945b8386106110a2575050505050508061042557506001805580f35b9496509294919390929186821b83018401356001600160a01b03811681036110e85786916110d46110da923390611bd6565b90611554565b960193918996959391611088565b8a80fd5b8551633ee5aeb560e01b81528790fd5b8480fd5b508234610349578160031936011261034957517f00000000000000000000000000000000000000000000000000000000000000006001600160a01b03168152602090f35b5082346103495781600319360112610349576020906003549051908152f35b508234610349578160031936011261034957600c5490516001600160a01b039091168152602090f35b508234610349578160031936011261034957602090516127108152f35b5082346103495781600319360112610349576020906009549051908152f35b508234610349578160031936011261034957517f00000000000000000000000000000000000000000000000000000000000000006001600160a01b03168152602090f35b5082346103495760203660031901126103495760209061123261122d611523565b61162b565b9051908152f35b5091903461030157826003193601126103015782546001600160a01b031633036112c25760065480156112b35742106112a5575060207fcb6d7cd9a715c819bc5a96c171f645b81d4d65b57cfe7d6b5e8a12f78022995d9160055490816003558460065551908152a180f35b9051637d857b6760e01b8152fd5b509051631e7ecc3960e31b8152fd5b602491519063118cdaa760e01b82523390820152fd5b50913461030157602036600319011261030157813591600260015414610a1c57600260015533845260076020526002828520018054848110611330578461131e91611577565b90558380808086335af16107d06115ec565b8351631e9acf1760e31b81528390fd5b509134610301576020366003190112610301578254823592906001600160a01b031633036112c2576101f483116113a35750816020917ff40fcef28e2fd11972ab82abb1b841090398b0e221140354dbb8581e053a6c9c93600b5551908152a180f35b905163cd4e616760e01b8152fd5b5082346103495780600319360112610349576113cb611523565b60025460243592916001600160a01b03918216331415806114d2575b6114c357907fac0b85d478adfb079659c4f91c1ac02976245810e783962cf32ccc4da68469879291169283855260209160088352808620611429838254611554565b905584865260078352808620600381015480151590816114b1575b50806114a6575b611459575b5051908152a280f35b60ff198154169055846000805160206131e3833981519152848351898152a2846000805160206131a38339815191528483516d14d513d417d512149154d213d31160921b8152a286611450565b5060ff81541661144b565b90506008855282882054101588611444565b82516282b42960e81b81528690fd5b50818554163314156113e7565b5082346103495781600319360112610349576020906006549051908152f35b9050346103495781600319360112610349576002546001600160a01b03168152602090f35b600435906001600160a01b038216820361153957565b600080fd5b6040919493926060820195825260208201520152565b9190820180921161156157565b634e487b7160e01b600052601160045260246000fd5b9190820391821161156157565b61018081019081106001600160401b038211176115a057604052565b634e487b7160e01b600052604160045260246000fd5b6001600160401b0381116115a057604052565b601f909101601f19168101906001600160401b038211908210176115a057604052565b3d15611626573d906001600160401b0382116115a0576040519161161a601f8201601f1916602001846115c9565b82523d6000602084013e565b606090565b600a546001600160a01b03908116919082156116bf57602460209260405194859384926331acf4d960e01b845216600483015261c350fa6000918161168b575b506116765750600090565b6127109081811115611686575090565b905090565b9091506020813d6020116116b7575b816116a7602093836115c9565b810103126115395751903861166b565b3d915061169a565b505050600090565b5190811515820361153957565b6001600160a01b0390811660008181526007602090815260408083208151909590926116ff84611584565b86549560ff871615968715978887528584880160ff8460081c161515815263ffffffff9b898d808760101c169d8e86840152606083019e8f838a60301c169052828960501c16928360808601528960701c1660a085015260018060401b03809960901c1660c08501526001850154978960e08601998181168b526101008701991c16885260028601546101208601526003860154946101606004610140830198888a5201549101529161190b575b506118f857156118e657151590816118cf575b506118bf5751151590816118af575b506118a157511689111561189557819060248551809581936342e90a6d60e11b835260048301527f0000000000000000000000000000000000000000000000000000000000000000165afa92831561188c57508492611856575b50501561184e578461183a91612f27565b9410611847575051161190565b9250505090565b509250505090565b90809250813d8311611885575b61186d81836115c9565b810103126103015761187e906116c7565b3880611829565b503d611863565b513d86823e3d90fd5b50505050509250505090565b505050505050509250505090565b90508260095491511610386117cf565b5050505050505050509250505090565b9050858b5260088752888b205490511115386117c0565b50505050505050505050509250505090565b5050505050505050505050509250505090565b905015386117ad565b8181029291811591840414171561156157565b8115611931570490565b634e487b7160e01b600052601260045260246000fd5b9060018060a01b0380600093168352602090600782526040918285209083519261197084611584565b82549260ff84161515855260ff8460081c1615158386015263ffffffff946101606004878760101c169389840197858952898160301c166060860152898160501c166080860152898160701c1660a086015260018060401b03809160901c1660c0860152600182015481811660e08701528b1c1661010085015260028101546101208501526003810154610140850152015491015215611abe5790806004928651938480926369fe02e760e01b82527f0000000000000000000000000000000000000000000000000000000000000000165afa948515611ab557508694611a7e575b5050611a619394505116611914565b612710611a7060035483611914565b04611a7b8183611554565b92565b9080929450813d8311611aae575b611a9681836115c9565b810103126110fc57611a619394505191849338611a52565b503d611a8c565b513d88823e3d90fd5b50505050509080918190565b805463ffffffff60301b191660309290921b63ffffffff60301b16919091179055565b805463ffffffff60501b191660509290921b63ffffffff60501b16919091179055565b9061ff00825491151560081b169061ff001916179055565b8115611931570690565b8054600160901b600160d01b03191660909290921b600160901b600160d01b0316919091179055565b805463ffffffff60701b191660709290921b63ffffffff60701b16919091179055565b8054600160401b600160801b03191660409290921b600160401b600160801b0316919091179055565b51906001600160a01b038216820361153957565b6001600160a01b039091168152602081019190915260400190565b919060018060a01b0383166000526007602052604060002092835460ff81161561255b5760101c63ffffffff161561255357604051633e53013f60e21b81526001600160a01b038281166004830152602090829060249082907f0000000000000000000000000000000000000000000000000000000000000000165afa90811561217057600091612521575b506040516302473b7360e51b81526001600160a01b038381166004830152602090829060249082907f0000000000000000000000000000000000000000000000000000000000000000165afa908115612170576000916124ef575b50809111612385575060038401548015159081612362575b506123555760ff845460081c168061233a575b61230e57604051632931132d60e11b81526020816004817f00000000000000000000000000000000000000000000000000000000000000006001600160a01b03165afa8015612170576000906122da575b611d44915042611927565b611d4e81866130b8565b845463ffffffff8160301c1663ffffffff8260701c1610156122965760018601546001600160401b0316821115612296576040516342e90a6d60e11b81526001600160a01b038481166004830152602090829060249082907f0000000000000000000000000000000000000000000000000000000000000000165afa908115612170576000916122a0575b5015612296576040516369fe02e760e01b8152906020826004817f00000000000000000000000000000000000000000000000000000000000000006001600160a01b03165afa91821561217057600092612262575b508115612257579063ffffffff611e489260101c16611914565b612710611e5760035483611914565b600a5491900492906001600160a01b03168015158061224e575b6121a7575b50611e818383611554565b96611e9c612710611e94600b5486611914565b048099611554565b600282019081548181106121985790611eb491611577565b90558361218b575b611ed563ffffffff600181845460701c16011682611b5b565b6004810180546001908101909155810180546001600160401b0319166001600160401b03848116919091178255600954611f1192911690611b7e565b805460101c63ffffffff16907f00000000000000000000000000000000000000000000000000000000000000006001600160a01b03163b156115395760405163b3f4e7c560e01b81526001600160a01b0387811660048301526024820193909352916000908390604490829088907f0000000000000000000000000000000000000000000000000000000000000000165af19182156121705763ffffffff9261217c575b505460101c169060405191825282602083015283604083015260608201526000805160206131c3833981519152608060018060a01b03861692a2600c546001600160a01b03168061204b575b5050508361200d575050565b6040518481526001600160a01b0391821692909116907f41fe871244150c5215a825066659fd905079873ee6f73332e87356927754382a90602090a3565b604051634a9fefc760e01b81526001600160a01b0385166004820152602081602481855afa90811561217057600091612136575b506001600160a01b031615612001576101f48083029083820414831517156115615761271090049280841161212e575b508215612001576120c283600454611577565b600455803b15611539576120f1600091849360405194858094819363113acf0160e11b83528a60048401611bbb565b03925af1908161211f575b506121195761210d90600454611554565b6004555b388080612001565b50612111565b612128906115b6565b386120fc565b9250386120af565b90506020813d602011612168575b81612151602093836115c9565b810103126115395761216290611ba7565b3861207f565b3d9150612144565b6040513d6000823e3d90fd5b612185906115b6565b38611fb5565b8360045401600455611ebc565b50600099505050505050505050565b6040516331acf4d960e01b81526001600160a01b0386166004820152906020908290602490829061c350fa6000918161221a575b5015611e76579092906127108111612211575b61271003906127108211611561576127109161220991611914565b049138611e76565b506127106121ee565b9091506020813d602011612246575b81612236602093836115c9565b81010312611539575190386121db565b3d9150612229565b50831515611e71565b506000955050505050565b9091506020813d60201161228e575b8161227e602093836115c9565b8101031261153957519038611e2e565b3d9150612271565b5060009450505050565b90506020813d6020116122d2575b816122bb602093836115c9565b81010312611539576122cc906116c7565b38611dd9565b3d91506122ae565b506020813d602011612306575b816122f4602093836115c9565b8101031261153957611d449051611d39565b3d91506122e7565b600954929361233593919250612330916001600160401b031690600101611b7e565b613047565b600090565b50600954600185015460401c6001600160401b031610611ce8565b9050612335919250612fd6565b6001600160a01b0383166000908152600860205260409020541015905038611cd5565b60c0919394506123ab92506040518093819263131e5b5b60e11b83528660048401611bbb565b03817f00000000000000000000000000000000000000000000000000000000000000006001600160a01b03165afa90811561217057600091612495575b50431115612480577f00000000000000000000000000000000000000000000000000000000000000006001600160a01b03163b156115395760405163e022bb7960e01b81526001600160a01b03918216600482015260016024820152906000908290604490829084907f0000000000000000000000000000000000000000000000000000000000000000165af1801561217057612486575b50600090565b61248f906115b6565b38612480565b905060c0813d60c0116124e7575b816124b060c093836115c9565b81010312611539576124e060a08251926124cc606082016116c7565b506124d9608082016116c7565b5001611ba7565b50386123e8565b3d91506124a3565b90506020813d602011612519575b8161250a602093836115c9565b81010312611539575138611cbd565b3d91506124fd565b90506020813d60201161254b575b8161253c602093836115c9565b81010312611539575138611c62565b3d915061252f565b506000925050565b50600093505050565b6001600160a01b0381166000908152600760205260408120805490949392919060ff811615612f155760101c63ffffffff1615612f0357604051633e53013f60e21b81526001600160a01b038381166004830152602090829060249082907f0000000000000000000000000000000000000000000000000000000000000000165afa908115612ccd578291612ed1575b506040516302473b7360e51b81526001600160a01b038481166004830152602090829060249082907f0000000000000000000000000000000000000000000000000000000000000000165afa908115612c1f578391612e9f575b50809111612d41575060038501548015159081612d21575b50612d145760ff855460081c1680612cf9575b612cd857604051632931132d60e11b81526020816004817f00000000000000000000000000000000000000000000000000000000000000006001600160a01b03165afa8015612ccd578290612c99575b6126d4915042611927565b906126df82876130b8565b855463ffffffff8160301c1663ffffffff8260701c161015612c875760018701546001600160401b0316831115612c75576040516342e90a6d60e11b81526001600160a01b038581166004830152602090829060249082907f0000000000000000000000000000000000000000000000000000000000000000165afa908115612c1f578391612c3b575b5015612c2a576040516369fe02e760e01b81526020816004817f00000000000000000000000000000000000000000000000000000000000000006001600160a01b03165afa908115612c1f578391612bed575b508015612bdb5763ffffffff6127d59260101c16611914565b6127106127e460035483611914565b600a5491900493906001600160a01b031680151580612bd2575b612b2c575b5061280e8483611554565b97612829612710612821600b5486611914565b04809a611554565b6002820190815490808210612b1a5761284191611577565b905584612b0d575b61286263ffffffff600181845460701c16011682611b5b565b6004810180546001908101909155810180546001600160401b0319166001600160401b0384811691909117825560095461289e92911690611b7e565b805460101c63ffffffff167f00000000000000000000000000000000000000000000000000000000000000006001600160a01b03163b156110fc5760405163b3f4e7c560e01b81526001600160a01b03888116600483015260248201929092529085908290604490829088907f0000000000000000000000000000000000000000000000000000000000000000165af18015612b0257908591612aee575b505063ffffffff905460101c169060405191825282602083015284604083015260608201526000805160206131c3833981519152608060018060a01b03871692a2600c546001600160a01b0316908161299d575b505050508361200d575050565b604051634a9fefc760e01b81526001600160a01b0386166004820152602081602481865afa908115612ae3578491612aa5575b506001600160a01b031615612990576101f4808202908282041482151715612a9157612710900493808511612a89575b50831561299057612a1384600454611577565b600455813b156103015791612a428192859460405195868094819363113acf0160e11b83528b60048401611bbb565b03925af19182612a72575b5050612a6c57612a5f90600454611554565b6004555b38808080612990565b50612a63565b612a7c82916115b6565b612a865780612a4d565b80fd5b935038612a00565b634e487b7160e01b84526011600452602484fd5b90506020813d602011612adb575b81612ac0602093836115c9565b81010312612ad757612ad190611ba7565b386129d0565b8380fd5b3d9150612ab3565b6040513d86823e3d90fd5b612af7906115b6565b612ad757833861293c565b6040513d87823e3d90fd5b8460045401600455612849565b604051631e9acf1760e31b8152600490fd5b6040516331acf4d960e01b81526001600160a01b0387166004820152906020908290602490829061c350fa849181612b9e575b5015612803579093906127108111612b95575b61271003906127108211612a915761271091612b8d91611914565b049238612803565b50612710612b72565b9091506020813d602011612bca575b81612bba602093836115c9565b8101031261153957519038612b5f565b3d9150612bad565b508415156127fe565b6040516313a603f360e21b8152600490fd5b90506020813d602011612c17575b81612c08602093836115c9565b810103126115395751386127bc565b3d9150612bfb565b6040513d85823e3d90fd5b604051623a24c960e61b8152600490fd5b90506020813d602011612c6d575b81612c56602093836115c9565b8101031261030157612c67906116c7565b38612769565b3d9150612c49565b604051630544361960e41b8152600490fd5b604051637f4571a160e01b8152600490fd5b506020813d602011612cc5575b81612cb3602093836115c9565b81010312611539576126d490516126c9565b3d9150612ca6565b6040513d84823e3d90fd5b9293612cf69250612330906001808060401b03600954169101611b7e565b90565b50600954600186015460401c6001600160401b031610612679565b929350612cf69150612fd6565b6001600160a01b0384168352600860205260408320541015905038612666565b60c091949550612d689293506040518093819263131e5b5b60e11b83528660048401611bbb565b03817f00000000000000000000000000000000000000000000000000000000000000006001600160a01b03165afa908115612c1f578391612e59575b50431115612e47577f00000000000000000000000000000000000000000000000000000000000000006001600160a01b03163b156103495760405163e022bb7960e01b81526001600160a01b039182166004820152600160248201529082908290604490829084907f0000000000000000000000000000000000000000000000000000000000000000165af18015612ccd57612e3e575090565b612cf6906115b6565b604051631bbcd6a360e21b8152600490fd5b905060c0813d60c011612e97575b81612e7460c093836115c9565b8101031261030157612e9060a08251926124cc606082016116c7565b5038612da4565b3d9150612e67565b90506020813d602011612ec9575b81612eba602093836115c9565b8101031261030157513861264e565b3d9150612ead565b90506020813d602011612efb575b81612eec602093836115c9565b810103126103495751386125f4565b3d9150612edf565b60405163aba4733960e01b8152600490fd5b604051633f54562b60e11b8152600490fd5b919060018060401b0360c0840151169063ffffffff60808160a087015116950191818351168015612fc7578415612fac5750612f668284511685611554565b811015612f75575b5050509190565b612fa094955090612f97612f8d856110d49594611577565b8284511690611927565b91511690611914565b90600091388080612f6e565b9150612fc19495508093506106fd9250611b28565b90600090565b50505050509050600090600090565b6001600160a01b03166000818152600760205260409020805460ff8116612ffc57505050565b60ff19169055806000805160206131e3833981519152602060405160008152a26000805160206131a383398151915260206040516d14d513d417d512149154d213d31160921b8152a2565b6001600160a01b03166000818152600760205260409020805460ff811661306d57505050565b60ff19169055806000805160206131e3833981519152602060405160008152a26000805160206131a383398151915260206040516d11d313d0905317d29050d2d413d560921b8152a2565b90815463ffffffff808260501c169081156130fc576001600160401b039260901c831691821561313d5750845460501c16906130f48282611554565b841015613103575b5050505050565b6110d4826131206107039461311b8561312599611577565b611927565b611914565b805463ffffffff60701b1916905538808080806130fc565b61070392508491506106fd9061315295611b28565b805463ffffffff60701b1916905556feabe5b1202d1f4ed2c1baccf335320ceae3abd90670864b741e80a2ef5671d882e1fffcc4923d04b559f4d29a8bfc6cda04eb5b0d3c460751c2402c5c5cc9109c3f3b7ff5947bb36fa208c54b971803edb5ea4589aea4a02a0fb629d00c6e3d6bba25bd444633ecceb88ed4492fb61ff7e2afb13eefaabd97ccadfa0b851775da4ba7e91abd20284f540bb9e984a6395619131c49a6fd51a727503bb7ef6dcdf2a26469706673582212209390f152a4cc45bceb163a071afe5c0809a4f1c1c7d28ff259638013fe22a5d964736f6c63430008180033",
  "linkReferences": {},
  "deployedLinkReferences": {}
}